:1000000041C07FC058C0BCC20EC355C054C053C00D
:1000100052C051C050C04FC04EC04DC04CC04BC06C
:100020004AC049C048C000CDD914F13C28E5A16CB4
:1000300078B5509D89440902190001010080280902
:1000400004000001FF000000070581000800001205
:10005000010101FF000008EB03020006010002009D
:1000600001040309041E0355005300420074006993
:10007000006E0079002000490052002F004C004320
:100080000044000011241FBECFEDCDBF10E0A0E65C
:10009000B0E0E4E3F7E002C005900D92A436B107AA
:1000A000D9F710E0A4E6B0E001C01D92AA3BB10769
:1000B000E1F734D33DC3A4CFDC019FEF8FEF46E2DD
:1000C000F0E018C02D918227E82FEF70E40F3591F2
:1000D000E82FE295892F932F3170E327EF709295E7
:1000E000392F9F70307E8327E40F3591932731702D
:1000F000932783276A9532F7809590958D939D93EA
:1001000008950F931F932F93DF93CF930FB70F9300
:100110008299FECF82990BC0829909C0829907C04B
:10012000829905C0829903C000E40ABFACC0C091A7
:10013000A200DD27CD55DF4F0BE01CE024E0829BC1
:10014000E9CF3F934F936F9360B330E803C060B340
:10015000432B499344276C702627215020B32C70E1
:10016000A9F137953C3FA0F56227615060B36C70F0
:1001700037953C3F98F526272150379520B32C70B2
:100180003C3F90F56227615037953C3F60B36C70FF
:10019000A0F52627215037953C3FC8F520B32C7099
:1001A0006227615037953C3FB0F50A9560B37AF00D
:1001B0006C702627215037953C3F88F520B32C7072
:1001C0006227615037953C3F10F22DC031C052C0BC
:1001D000612720B32C703F774160C6CF3F774260E4
:1001E00060B36C702127C7CF3F774460612720B38D
:1001F0002C70622761503795C8CF3F774860212720
:10020000316060B36C70262721503795C6CF3F7799
:1002100040616127C1CF3F7740622127C4CF3F773C
:1002200040646127C9CF3F774068212700C08FCF46
:1002300030E43ABF0B500195C01BD040288121FD0E
:100240002DC019811F774091B900141799F42936F0
:1002500091F4009193000023F1F04091A100442318
:10026000D1F44093930040919F004093B900C4E9BA
:10027000D0E02BC02227209364006F914F913F91D3
:100280000AB706FD45CF0F910FBFCF91DF912F9198
:100290001F910F911895C1E6D0E016C0217059F357
:1002A00020916400222339F34091A100442399F75F
:1002B0000093A1002093A0000091A2004BE0401BFE
:1002C0004093A200C0E6D0E001E022B3237F286083
:1002D00011B31C6022BB11BB1CE030E830FF2127AA
:1002E00022BB379547954C3FC0F530FF2127379506
:1002F00022BB47954C3FA8F530FF212737950000DA
:1003000022BB47954C3F78F530FF212737950000F9
:1003100022BB47954C3F48F530FF2127699122BB0E
:10032000379547954C3F18F530FF2127379522BB6D
:1003300047954C3F00F530FF21273795479522BB65
:100340004C3FD8F430FF21273795362F479522BBF5
:100350004C3FA8F40A9512F614C02127442722BB6B
:10036000C2CF2127C5CF2127CBCF2127D1CF21270E
:10037000442722BBD7CF2127DACF2127DFCF212760
:10038000E5CF237F22BB6F914F913F9100E40ABFDD
:10039000DF91CF9111B3022F286022BB137FDFBF03
:1003A000DF912F91000011BB02BB1F910F91189597
:1003B00085B7836085BF8BB780648BBF8D9A949A15
:1003C0008C9A789408951F93CF93DF936091A10046
:1003D000662309F470C08091A200CCE0D0E0C81B75
:1003E000D109CD55DF4F81E0809368008091A00056
:1003F0008D3209F052C01E818F8181111FEF8881DB
:10040000807681F58981811104C01882198282E089
:100410003CC0853029F48A8180939F00959AAAC0B8
:100420008630A9F482E0809368008B81813011F1DD
:10043000823021F1833009F09DC08A81882311F137
:10044000823009F097C08EE1C5E6D0E01EC088304A
:1004500019F481E0888319C08A3009F08BC01882B2
:1004600081E013C0CE010CD18F3F79F493E09093DB
:1004700068000BC082E1CFE4D0E007C089E1C6E3A9
:10048000D0E003C084E0C1E6D0E0181708F0182FD0
:10049000D0936600C093650005C0635011F0CE0193
:1004A0003CD110E01093670083EC8093940010928D
:1004B00093001092A10080919300811150C080910F
:1004C0006800882309F44BC09091940028E8922793
:1004D0009093940010916700193018F4112399F14A
:1004E00001C018E0833031F4612F85E990E0EFD04E
:1004F000182F24C0E0916500F0916600813081F4EE
:10050000DF0145E950E0EA019D012F5F3F4FF9010E
:100510008C9189938C2F841B811760F4D901F4CFBF
:1005200025E930E0D90184918D9331968A2F821B81
:100530008117C8F3F0936600E0936500809167002F
:10054000811B80936700612F85E990E0B5DD83E032
:10055000810F80939300183010F4109268008AE0A5
:1005600083990AC08150E1F710929F001092B90060
:10057000959802C080E08BCFDF91CF911F910895B5
:100580001F920F920FB60F9211242F938F939F9368
:10059000EF93FF9319BE78948EB590E489278EBDB2
:1005A00084B595B5E0916900F0916A008F939F93AF
:1005B000805C9F4F8E1B9F0B880F892F881F990B84
:1005C0009195282F9F918F9190936A008093690055
:1005D0008A57924C9BBD8ABDF894809192008F3FC0
:1005E00099F0853208F08051909162009F3F49F464
:1005F00010926B00882329F0E82FF0E0E559FF4FB7
:1006000022838F5F809392007894959A88E4F8947F
:1006100089BFFF91EF919F918F912F910F900FBE06
:100620000F901F9018951F920F920FB60F921124E2
:100630008F939F9319BE78949598F8949091920017
:100640008CEF890F8B3F60F4809162008F3F41F403
:1006500080916C008F5F80936C00915090936B0041
:100660001092920078948EB58F7B8EBDF89488E4BA
:1006700089BF9F918F910F900FBE0F901F9018957B
:10068000FC018181882309F1813031F410926B00E3
:100690008FEF8093620017C0823071F4F8948091DC
:1006A0006B00882329F08281809362008FEF02C063
:1006B000108281E078940895843111F4C49803C0C5
:1006C000853109F4C49A80E0089588E00895209166
:1006D0006B002D5F30916200DC0180E0E82FE30FBA
:1006E0008617C1F0E21778F0E0936200F8949091D9
:1006F0009200992319F09FEF909392009FEF9093AF
:100700006200789408958F5FF0E0E559FF4F908183
:100710009D93E4CFE0936200089508958FED8DBF1F
:100720008D9A82E88EBD88E489BF42DE4CDEFECF22
:04073000F894FFCF6B
:04073400D25AFF0096
:00000001FF
