:100000003AC078C051C050C04FC04EC04DC04CC067
:100010004BC04AC049C048C047C046C045C044C0A4
:1000200043C042C041C000CDD914F13C28E5A16CC9
:1000300078B5509D894409021200010100803209FF
:1000400004000000FF00000012010101FF00000891
:1000500081179F0C06010002000104030904180324
:10006000550053004200740069006E0079002000C2
:1000700053005000490011241FBECFEDCDBF10E04A
:10008000A0E6B0E0E8EDF7E002C005900D92A236E0
:10009000B107D9F710E0A2E6B0E001C01D92AE3979
:1000A000B107E1F794D396C3ABCFDC019FEF8FEF9D
:1000B00046E2F0E018C02D918227E82FEF70E40FA0
:1000C0003591E82FE295892F932F3170E327EF7058
:1000D0009295392F9F70307E8327E40F35919327B7
:1000E0003170932783276A9532F7809590958D9389
:1000F0009D9308950F931F932F93DF93CF930FB783
:100100000F938299FECF82990BC0829909C0829980
:1001100007C0829905C0829903C000E40ABFACC041
:10012000C0918600DD27C957DF4F0BE014E124E0C2
:10013000829BE9CF3F934F936F9360B330E803C046
:1001400060B3432B4993442764712627215020B381
:100150002471A9F137953C3FA0F56227615060B347
:10016000647137953C3F98F526272150379520B389
:1001700024713C3F90F56227615037953C3F60B356
:100180006471A0F52627215037953C3FC8F520B370
:1001900024716227615037953C3FB0F50A9560B3F2
:1001A0007AF064712627215037953C3F88F520B3BB
:1001B00024716227615037953C3F10F22DC031C049
:1001C00052C0612720B324713F774160C6CF3F778B
:1001D000426060B364712127C7CF3F7744606127D5
:1001E00020B32471622761503795C8CF3F774860AC
:1001F0002127316060B36471262721503795C6CF1F
:100200003F7740616127C1CF3F7740622127C4CF4C
:100210003F7740646127C9CF3F774068212700C0FE
:100220008FCF30E43ABF0B500195C01BD0402881DE
:1002300021FD2DC019811F7740919D00141799F45D
:10024000293691F4009177000023F1F04091850068
:100250004423D1F4409377004091830040939D0064
:10026000C8E7D0E02BC02227209362006F914F9106
:100270003F910AB706FD45CF0F910FBFCF91DF9198
:100280002F911F910F911895C1E6D0E016C02170F3
:1002900059F320916200222339F3409185004423D1
:1002A00099F70093850020938400009186004BE02D
:1002B000401B40938600C0E6D0E001E022B32B7ED5
:1002C000206111B3146122BB11BB14E130E830FF8F
:1002D000212722BB379547954C3FC0F530FF21279A
:1002E000379522BB47954C3FA8F530FF212737951E
:1002F000000022BB47954C3F78F530FF212737950A
:10030000000022BB47954C3F48F530FF21276991FB
:1003100022BB379547954C3F18F530FF212737957D
:1003200022BB47954C3F00F530FF21273795479575
:1003300022BB4C3FD8F430FF21273795362F479505
:1003400022BB4C3FA8F40A9512F614C0212744277B
:1003500022BBC2CF2127C5CF2127CBCF2127D1CF89
:100360002127442722BBD7CF2127DACF2127DFCF70
:100370002127E5CF2B7E22BB6F914F913F9100E467
:100380000ABFDF91CF9111B3022F206122BB1B7EE8
:10039000DFBFDF912F91000011BB02BB1F910F91B6
:1003A000189585B7836085BF8BB780648BBF7894C1
:1003B00008951F93CF93DF9360918500662309F41E
:1003C0006FC080918600CCE0D0E0C81BD109C9572E
:1003D000DF4F81E080936600809184008D3209F0C8
:1003E00051C01E818F8181111FEF8881807679F540
:1003F0008981811104C01882198282E03BC0853056
:1004000021F48A8180938300A9C08630A9F482E018
:10041000809366008B81813011F1823021F183302D
:1004200009F09CC08A81882311F1823009F096C0BE
:1004300088E1CEE5D0E01EC0883019F481E08883E1
:1004400019C08A3009F08AC0188281E013C0CE0139
:10045000E1D08F3F79F493E0909366000BC082E186
:10046000C8E4D0E007C082E1C6E3D0E003C084E086
:10047000CAE5D0E0181708F0182FD0936400C09395
:10048000630005C0635011F0CE0157D110E0109306
:10049000650083EC809378001092770010928500BD
:1004A00080917700811150C080916600882309F403
:1004B0004BC09091780028E8922790937800109193
:1004C0006500193018F4112399F101C018E0833048
:1004D00031F4612F89E790E00FD1182F24C0E0910B
:1004E0006300F0916400813081F4DF0149E750E05E
:1004F000EA019D012F5F3F4FF9018C9189938C2F69
:10050000841B811760F4D901F4CF29E730E0D901C9
:1005100084918D9331968A2F821B8117C8F3F093B3
:100520006400E093630080916500811B8093650007
:10053000612F89E790E0B9DD83E0810F8093770038
:10054000183010F4109266008AE0849909C0815036
:10055000E1F71092830010929D0002C080E08CCFE2
:10056000DF91CF911F910895CF93DF93FB01AC01F1
:100570004C5F5F4FEC01A991CE0128E030E070E8BC
:1005800060E0B72FBA2309F0C79AB09176000B2E1E
:1005900000C000000A94E1F7C69AB09176000B2ED5
:1005A00000C000000A94E1F7660F83996F5FC79857
:1005B000C6987695215031092115310511F76193BF
:1005C00084179507B9F6DF91CF9108958091720055
:1005D000909173009C012F5F3F4F309373002093E5
:1005E000720020916F0027FF02C0880F991F80FDC5
:1005F000286020936B009C01232F3327269520939E
:100600006C009695879580936D0067E670E08BE6A9
:1006100090E0AACFFC012181222309F46BC0448120
:10062000A42FB0E0213021F48C91808381E00895E3
:100630003281223011F43C935BC0532F577081E01C
:1006400090E0052E01C0880F0A94EAF7233021F4C8
:1006500080959C91982304C0243021F49C91982B80
:100660009C9346C0253059F430937600411102C066
:100670008FE001C08FE29FEF97BB88BB39C0263067
:1006800021F4C59A18BA17BA33C088B3882381F108
:10069000273031F4BF01CF01029666DF84E0089570
:1006A000283031F43093750083818093740020C02A
:1006B000848195819093730080937200293011F4A6
:1006C00080E203C02B3029F480EA80936F008FEF23
:1006D00008958281938190937100809370002A30F5
:1006E00011F480E403C02C3019F480EC80936F0087
:1006F00080E0089588E00895EF92FF920F931F9392
:10070000CF93DF931F92CDB7DD278C01862F780121
:100710009E2D901B981748F4898358DF90916A00AA
:10072000F70191937F018981F3CF0F90DF91CF91F2
:100730001F910F91FF90EF900895CF92DF92EF926B
:10074000FF920F931F93CF93DF937C01D62EEC0182
:10075000E0E6CE2E8C2F8E198D1580F58991809331
:100760006E0034DF80916B008C2580936B0000E07D
:1007700010E080917000909171000817190750F7F0
:1007800067E670E08BE690E0EFDE80916A00909182
:100790006E00891308C090917500891721F090911F
:1007A00074008913D7CF2091760030E075E0220FD6
:1007B000331F7A95E1F7020F131FDBCFDF91CF9143
:1007C0001F910F91FF90EF90DF90CF900895E9DD9A
:0807D000F0DDFECFF894FFCF2D
:0207D800D25AF3
:00000001FF
